{
  "contractName": "DasesUsers",
  "abi": [
    {
      "inputs": [],
      "stateMutability": "nonpayable",
      "type": "constructor"
    },
    {
      "inputs": [
        {
          "internalType": "uint256",
          "name": "",
          "type": "uint256"
        }
      ],
      "name": "listOfParticipants",
      "outputs": [
        {
          "internalType": "address",
          "name": "publicKey",
          "type": "address"
        },
        {
          "internalType": "string",
          "name": "userName",
          "type": "string"
        },
        {
          "internalType": "string",
          "name": "entityName",
          "type": "string"
        }
      ],
      "stateMutability": "view",
      "type": "function",
      "constant": true
    },
    {
      "inputs": [],
      "name": "getParticipantsList",
      "outputs": [
        {
          "components": [
            {
              "internalType": "address",
              "name": "publicKey",
              "type": "address"
            },
            {
              "internalType": "string",
              "name": "userName",
              "type": "string"
            },
            {
              "internalType": "string",
              "name": "entityName",
              "type": "string"
            }
          ],
          "internalType": "struct DasesUsers.Participant[]",
          "name": "",
          "type": "tuple[]"
        }
      ],
      "stateMutability": "view",
      "type": "function",
      "constant": true
    }
  ],
  "bytecode": "0x608060405234801561001057600080fd5b5060006040518060600160405280733ef2d0e07cab0524771c02c455dc891560c7746273ffffffffffffffffffffffffffffffffffffffff1681526020016040518060400160405280600f81526020017f50696572726520464f4e5441494e45000000000000000000000000000000000081525081526020016040518060400160405280600e81526020017f494d542041746c616e7469717565000000000000000000000000000000000000815250815250908060018154018082558091505060019003906000526020600020906003020160009091909190915060008201518160000160006101000a81548173ffffffffffffffffffffffffffffffffffffffff021916908373ffffffffffffffffffffffffffffffffffffffff160217905550602082015181600101908051906020019061014e92919061042d565b50604082015181600201908051906020019061016b92919061042d565b5050506000604051806060016040528073847043871dbde2d6e9ec961c93aeb42a9b53681373ffffffffffffffffffffffffffffffffffffffff1681526020016040518060400160405280600b81526020017f4672616e6b2044454e495300000000000000000000000000000000000000000081525081526020016040518060400160405280601881526020017f4f72616e676520427573696e6573732053657276696365730000000000000000815250815250908060018154018082558091505060019003906000526020600020906003020160009091909190915060008201518160000160006101000a81548173ffffffffffffffffffffffffffffffffffffffff021916908373ffffffffffffffffffffffffffffffffffffffff16021790555060208201518160010190805190602001906102ab92919061042d565b5060408201518160020190805190602001906102c892919061042d565b5050506000604051806060016040528073f27ed7acebb4b3065d24f4b4b4daaf20766c037673ffffffffffffffffffffffffffffffffffffffff1681526020016040518060400160405280600c81526020017f506965727265205045544954000000000000000000000000000000000000000081525081526020016040518060400160405280600581526020017f4441534553000000000000000000000000000000000000000000000000000000815250815250908060018154018082558091505060019003906000526020600020906003020160009091909190915060008201518160000160006101000a81548173ffffffffffffffffffffffffffffffffffffffff021916908373ffffffffffffffffffffffffffffffffffffffff160217905550602082015181600101908051906020019061040892919061042d565b50604082015181600201908051906020019061042592919061042d565b505050610531565b828054610439906104ff565b90600052602060002090601f01602090048101928261045b57600085556104a2565b82601f1061047457805160ff19168380011785556104a2565b828001600101855582156104a2579182015b828111156104a1578251825591602001919060010190610486565b5b5090506104af91906104b3565b5090565b5b808211156104cc5760008160009055506001016104b4565b5090565b7f4e487b7100000000000000000000000000000000000000000000000000000000600052602260045260246000fd5b6000600282049050600182168061051757607f821691505b6020821081141561052b5761052a6104d0565b5b50919050565b610780806105406000396000f3fe608060405234801561001057600080fd5b50600436106100365760003560e01c80638461b7061461003b578063ddfbb9d41461006d575b600080fd5b61005560048036038101906100509190610409565b61008b565b60405161006493929190610510565b60405180910390f35b6100756101f5565b60405161008291906106c7565b60405180910390f35b6000818154811061009b57600080fd5b90600052602060002090600302016000915090508060000160009054906101000a900473ffffffffffffffffffffffffffffffffffffffff16908060010180546100e490610718565b80601f016020809104026020016040519081016040528092919081815260200182805461011090610718565b801561015d5780601f106101325761010080835404028352916020019161015d565b820191906000526020600020905b81548152906001019060200180831161014057829003601f168201915b50505050509080600201805461017290610718565b80601f016020809104026020016040519081016040528092919081815260200182805461019e90610718565b80156101eb5780601f106101c0576101008083540402835291602001916101eb565b820191906000526020600020905b8154815290600101906020018083116101ce57829003601f168201915b5050505050905083565b60606000805480602002602001604051908101604052809291908181526020016000905b828210156103c557838290600052602060002090600302016040518060600160405290816000820160009054906101000a900473ffffffffffffffffffffffffffffffffffffffff1673ffffffffffffffffffffffffffffffffffffffff1673ffffffffffffffffffffffffffffffffffffffff1681526020016001820180546102a290610718565b80601f01602080910402602001604051908101604052809291908181526020018280546102ce90610718565b801561031b5780601f106102f05761010080835404028352916020019161031b565b820191906000526020600020905b8154815290600101906020018083116102fe57829003601f168201915b5050505050815260200160028201805461033490610718565b80601f016020809104026020016040519081016040528092919081815260200182805461036090610718565b80156103ad5780601f10610382576101008083540402835291602001916103ad565b820191906000526020600020905b81548152906001019060200180831161039057829003601f168201915b50505050508152505081526020019060010190610219565b50505050905090565b600080fd5b6000819050919050565b6103e6816103d3565b81146103f157600080fd5b50565b600081359050610403816103dd565b92915050565b60006020828403121561041f5761041e6103ce565b5b600061042d848285016103f4565b91505092915050565b600073ffffffffffffffffffffffffffffffffffffffff82169050919050565b600061046182610436565b9050919050565b61047181610456565b82525050565b600081519050919050565b600082825260208201905092915050565b60005b838110156104b1578082015181840152602081019050610496565b838111156104c0576000848401525b50505050565b6000601f19601f8301169050919050565b60006104e282610477565b6104ec8185610482565b93506104fc818560208601610493565b610505816104c6565b840191505092915050565b60006060820190506105256000830186610468565b818103602083015261053781856104d7565b9050818103604083015261054b81846104d7565b9050949350505050565b600081519050919050565b600082825260208201905092915050565b6000819050602082019050919050565b61058a81610456565b82525050565b600082825260208201905092915050565b60006105ac82610477565b6105b68185610590565b93506105c6818560208601610493565b6105cf816104c6565b840191505092915050565b60006060830160008301516105f26000860182610581565b506020830151848203602086015261060a82826105a1565b9150506040830151848203604086015261062482826105a1565b9150508091505092915050565b600061063d83836105da565b905092915050565b6000602082019050919050565b600061065d82610555565b6106678185610560565b93508360208202850161067985610571565b8060005b858110156106b557848403895281516106968582610631565b94506106a183610645565b925060208a0199505060018101905061067d565b50829750879550505050505092915050565b600060208201905081810360008301526106e18184610652565b905092915050565b7f4e487b7100000000000000000000000000000000000000000000000000000000600052602260045260246000fd5b6000600282049050600182168061073057607f821691505b60208210811415610744576107436106e9565b5b5091905056fea2646970667358221220fcb5f3148b93ab14b66cb522e1af6e3f179ef0c7f6c2b1971ff62a75f38a37ec64736f6c634300080b0033",
  "immutableReferences": {},
  "source": "// SPDX-License-Identifier: MIT\npragma solidity 0.8.11;\n/// @title An association between public address and entity name/entity contact\n/// @author Perrin Grandne\n/// @notice This contract list participants from DASES in an array\n\n//The contract inherits from Ownable module of Open Zeppelin\ncontract DasesUsers {\n    //This declares a structure type, which will be used as structure of the array with the list of entities\n    struct Participant {\n        address publicKey; // It is the address of the entity who wants to be added\n        string userName; // It is the name of the entity\n        string entityName; // It is a contact address of the Entity\n    }\n\n    Participant[] public listOfParticipants; //Array which list these entites, based on Entities struct\n\n    //Store the address and informations associated\n    constructor() {\n        listOfParticipants.push(\n            Participant(\n                0x3EF2d0e07cAb0524771c02c455Dc891560C77462,\n                \"Pierre FONTAINE\",\n                \"IMT Atlantique\"\n                )\n        );\n        listOfParticipants.push(\n            Participant(\n                0x847043871DBDE2D6e9EC961c93AeB42a9b536813,\n                \"Frank DENIS\",\n                \"Orange Business Services\"\n                )\n        );\n        listOfParticipants.push(\n            Participant(0xF27Ed7aCebb4B3065D24F4B4B4daaf20766C0376, \n            \"Pierre PETIT\", \n            \"DASES\"\n        )\n        );\n    }\n\n \n    //Collect the list of Entities\n    function getParticipantsList()\n        public\n        view\n        returns (Participant[] memory)\n    {\n        return listOfParticipants;\n    }\n}\n",
  "sourcePath": "/home/perrin/Project/dases/app/contracts/DasesUsers.sol",
  "compiler": {
    "name": "solc",
    "version": "0.8.11+commit.d7f03943.Emscripten.clang"
  },
  "schemaVersion": "3.4.4",
  "updatedAt": "2022-01-17T17:03:19.647Z",
  "networkType": "ethereum",
  "devdoc": {
    "author": "Perrin Grandne",
    "kind": "dev",
    "methods": {},
    "title": "An association between public address and entity name/entity contact",
    "version": 1
  },
  "userdoc": {
    "kind": "user",
    "methods": {},
    "notice": "This contract list participants from DASES in an array",
    "version": 1
  }
}